:100000000C94D5060C94B7150C9490150C94FD0621
:100010000C94FD060C94FD060C94FD060C94FD0654
:100020000C94FD060C94FD060C94FD060C94FD0644
:100030000C94FD060C94FD060C94FD060C94FD0634
:100040000C9446150C94FD060C9404160C94DE15C5
:100050000C94FD060C9436160C94FD060C94FD06CB
:100060000C94FD060C94FD0605A84CCDB2D44EB9F7
:100070003836A9020C50B9918688083CA6AAAA2A4B
:10008000BE000000803F5246206F66660052462048
:100090006F6E0074656D705F656E61626C65203DAA
:1000A000200070756C736520706572696F64203D07
:1000B000200070756C736573203D2000646174616D
:1000C0006C6F67203D200069344C656164203D20E1
:1000D00000693443616C203D200069334C656164E4
:1000E000203D2000693343616C203D200069324C83
:1000F000656164203D2000693243616C203D200031
:1001000069314C656164203D2000693143616C2098
:100110003D2000617373756D656456203D20007647
:1001200043616C203D200043616C696272617469B7
:100130006F6E3A002064426D002C20002C204E6F20
:1001400064652000204D487A2C2047726F7570201E
:100150000042616E64200053657474696E67733A7F
:10016000004E6F20454550524F4D20636F6E6669BB
:1001700067004C6F6164656420454550524F4D20C7
:10018000636F6E6669670043543420646574656309
:100190007465642C20693443616C3A004354332005
:1001A00064657465637465642C20693343616C3ADB
:1001B000004354322064657465637465642C20695F
:1001C0003243616C3A004354312064657465637452
:1001D00065642C20693143616C3A004E4F204354D2
:1001E0002773206465746563746564004661637495
:1001F0006F727920546573740055534120566361C2
:100200006C206163746976653A20002000204E6F8F
:1002100064653A20002047726F75703A20003931CA
:10022000354D487A003836384D487A003433334DEE
:10023000487A0020467265713A200052464D3639A0
:10024000435720004F70656E456E657267794D6F3C
:100250006E69746F722E6F726700656D6F6E547881
:10026000205633434D20436F6E74696E756F7573FE
:10027000204D6F6E69746F72696E672056000A00B8
:10028000202868696464656E292E0020627974658F
:1002900073002C20446174612073697A653A2000F0
:1002A000205369676E61747572653A20004E6F2045
:1002B0006461746120626C6F636B20666F756E643D
:1002C000202D20454550524F4D2061707065617260
:1002D0007320746F20626520666F726D617474653F
:1002E0006420746F204F454D205374616E646172B9
:1002F000642062757420756E757365642E000A0043
:100300002062797465732C206E6F7420666F726D35
:10031000617474656420746F204F454D205374617F
:100320006E646172640053697A653A2000446F6EAE
:10033000652E204E657720636F6E66696720736156
:1003400076656420746F20454550524F4D005361CF
:1003500076696E672E2E2E00536B65746368207766
:10036000696C6C206E6F7720726573746172742093
:100370007573696E672064656661756C7420636F60
:100380006E6669672E00526573657474696E672EB8
:100390002E2E002000456E657267792076616C759F
:1003A00065732073657420746F207A65726F0043E3
:1003B0006F6E74696E75696E672E2E2E0052462020
:1003C0006F6666005246206F6E00456D6F6E547802
:1003D000563334434D2052464D36396E20436F6EAE
:1003E00074696E756F7573204D6F6E69746F726985
:1003F0006E672056002064426D0070203D20004E44
:100400006F646520006F666600206D730050756C28
:100410007365733A20002000200043616C3A206B22
:100420000047726F75702000467265713A20002097
:100430007300646174616C6F6720706572696F64CA
:100440003A2000204D487A00417373756D65642031
:10045000563A2000456E746572696E672053657464
:1004600074696E6773206D6F64652E2E2E00005EBA
:10047000BCE2613FDD83C29C7E20A3FD1F41009D45
:1004800023BE46DB65F88C11AF32CA57E9742C7075
:1004900066343A002C7066333A002C7066323A00AB
:1004A0002C7066313A002C49343A002C49333A001A
:1004B0002C49323A002C49313A0056726D733A0099
:1004C0002C70756C73653A002C54333A002C5432FE
:1004D0003A002C54313A002C45343A002C45333A3A
:1004E000002C45323A002C45313A002C50343A0069
:1004F0002C50333A002C50323A002C50313A002C18
:1005000056726D733A004D53473A002056004143EE
:10051000206D697373696E67202D20417070617260
:10052000656E7420506F7765722063616C6320651F
:100530006E61626C65642C20617373756D696E67A2
:10054000200041432070726573656E74202D205227
:1005500065616C20506F7765722063616C63206504
:100560006E61626C65640000000000240027002AB0
:100570000000000000250028002B000000000800FB
:10058000020100000304070000000000000000005A
:1005900000000023002600290004040404040404CD
:1005A0000402020202020203030303030301020422
:1005B00008102040800102040810200102040810E5
:1005C0002020656E61626C65642E0054656D7065F7
:1005D000726174757265206D6561737572656D65A4
:1005E0006E742069730053656E736F72206D61794C
:1005F000206E6F742062652072656C6961626C6543
:1006000000200030002C20776974682061646472D7
:1006100065737365732E2E2E0054656D706572615F
:10062000747572652053656E736F727320666F7593
:100630006E64203D20000A417661696C61626C65E0
:1006400020636F6D6D616E64733A0A6C09092D2029
:100650006C697374207468652073657474696E675F
:10066000730A7209092D20726573746F72652073A5
:100670006B657463682064656661756C74730A7376
:1006800009092D20736176652073657474696E673E
:100690007320746F20454550524F4D0A7609092D3D
:1006A0002073686F77206669726D77617265207656
:1006B000657273696F6E0A7A09092D207A65726F07
:1006C00020656E657267792076616C7565730A784E
:1006D00009092D20657869742C206C6F636B20618B
:1006E0006E6420636F6E74696E75650A3F09092D2B
:1006F0002073686F7720746869732074657874203C
:10070000616761696E0A0A773C783E09092D207499
:1007100075726E2052464D20576972656C65737311
:100720002064617461206F66663A2078203D203035
:10073000206F72206F6E3A2078203D20310A623C93
:100740006E3E09092D2073657420722E662E20627C
:10075000616E64206E203D20612073696E676C6558
:10076000206E756D6572616C3A2034203D20343303
:10077000334D487A2C2038203D203836384D487A81
:100780002C2039203D203931354D487A20286D61A3
:10079000792072657175697265206861726477612C
:1007A0007265206368616E6765290A703C6E6E3EF3
:1007B00009092D207365742074686520722E662ED9
:1007C00020706F7765722E206E6E202D20616E2056
:1007D000696E74656765722030202D203331207278
:1007E0006570726573656E74696E67202D3138208F
:1007F00064426D20746F202B31332064426D2E20B3
:1008000044656661756C743A20323520282B372098
:1008100064426D290A673C6E6E6E3E092D20736539
:1008200074204E6574776F726B2047726F757020FD
:10083000206E6E6E202D20616E20696E7465676576
:100840007220284F454D2064656661756C74203DAB
:1008500020323130290A6E3C6E6E3E09092D20731C
:100860006574206E6F6465204944206E3D20616E82
:1008700020696E746567657220287374616E6461A7
:100880007264206E6F6465206964732061726520F4
:10089000312E2E3630290A0A643C78782E783E09AB
:1008A0002D2078782E78203D206120666C6F617451
:1008B000696E6720706F696E74206E756D62657207
:1008C00020666F722074686520646174616C6F6764
:1008D00067696E6720706572696F640A633C6E3E7B
:1008E00009092D206E203D203020666F72204F4672
:1008F000462C206E203D203120666F72204F4E2CFA
:1009000020656E61626C6520766F6C746167652C22
:100910002063757272656E74202620706F77657221
:1009200020666163746F722076616C7565732074E4
:100930006F2073657269616C206F757470757420B7
:10094000666F722063616C6962726174696F6E2E8A
:10095000200A663C78783E09092D207878203D20D1
:10096000746865206C696E65206672657175656E68
:10097000637920696E20487A3A206E6F726D616CDF
:100980006C7920656974686572203530206F72203B
:1009900036300A6B3C783E203C79792E793E203CFB
:1009A0007A7A2E7A3E0A09092D2043616C696272B7
:1009B00061746520616E20616E616C6F6775652082
:1009C000696E707574206368616E6E656C3A0A09B1
:1009D00009202078203D20612073696E676C6520B6
:1009E0006E756D6572616C3A2030203D20766F6CBB
:1009F000746167652063616C6962726174696F6EAE
:100A00002C2031203D206374312063616C69627257
:100A10006174696F6E2C2032203D20637432206334
:100A2000616C6962726174696F6E2C206574630A0F
:100A30000909202079792E79203D206120666C6F8C
:100A40006174696E6720706F696E74206E756D6277
:100A5000657220666F722074686520766F6C7461B1
:100A600067652F63757272656E742063616C69626D
:100A7000726174696F6E20636F6E7374616E740A55
:100A8000090920207A7A2E7A203D206120666C6F39
:100A90006174696E6720706F696E74206E756D6227
:100AA000657220666F722074686520706861736576
:100AB0002063616C6962726174696F6E20666F7227
:100AC000207468697320632E742E20287A2069733D
:100AD000206E6F74206E65656465642C206F7220D3
:100AE00069676E6F72656420696620737570706CDB
:100AF0006965642C207768656E2078203D20302958
:100B00000A09092020652E672E206B3020323536E9
:100B10002E380A0909202020202020206B3120397E
:100B2000302E3920322E30300A613C78782E783ED3
:100B3000092D2078782E78203D206120666C6F6129
:100B400074696E6720706F696E74206E756D626572
:100B50007220666F722074686520617373756D65AD
:100B60006420766F6C74616765206966206E6F2003
:100B7000612E632E206973206465746563746564F7
:100B80000A6D3C783E203C79793E092D206D6574D4
:100B900065722070756C736520636F756E74696E15
:100BA000673A0A090920202078203D203020666F0E
:100BB00072204F46462C2078203D203120666F72EF
:100BC000204F4E2C203C79793E203D20616E2069DB
:100BD0006E746567657220666F7220746865207038
:100BE000756C7365206D696E696D756D20706572C9
:100BF000696F6420696E206D732E202879206973D7
:100C0000206E6F74206E65656465642C206F7220A1
:100C100069676E6F726564207768656E2078203D25
:100C20002030290A7430203C793E092D20747572D9
:100C30006E2074656D7065726174757265206D6586
:100C400061737572656D656E74206F6E206F7220B2
:100C50006F66663A2079203D203020666F72204F03
:100C600046462C2079203D203120666F72204F4E61
:100C70000A743C783E203C79793E203C79793E20CC
:100C80003C79793E203C79793E203C79793E203C84
:100C900079793E203C79793E203C79793E0A0909F0
:100CA0002D206368616E676520612074656D7065D5
:100CB0007261747572652073656E736F722773202D
:100CC00061646472657373206F7220706F736974EE
:100CD000696F6E3A0A0909202078203D206120734F
:100CE000696E676C65206E756D6572616C3A207413
:100CF000686520706F736974696F6E206F66207409
:100D000068652073656E736F7220696E2074686504
:100D1000206C6973742028312D6261736564290A1F
:100D2000090920207979203D2038206865786164A0
:100D30006563696D616C206279746573207265709A
:100D4000726573656E74696E67207468652073657B
:100D50006E736F72277320616464726573730A091E
:100D60000920202020652E672E202032382038319F
:100D700020343320333120303720303020303020C1
:100D800044390A090920204E2E422E2053656E73E5
:100D90006F72732043414E4E4F5420626520616450
:100DA0006465642E0A000A000B1C11241FBECFEFDD
:100DB000D8E0DEBFCDBF25E0AEE7B1E001C01D92B7
:100DC000A732B207E1F711E0A0E0B1E0E4E4FCE60D
:100DD00002C005900D92AE37B107D9F716E0C5ED08
:100DE000D6E004C02197FE010E94A533C43DD1077F
:100DF000C9F70E94C21D0C9420360C9400008CB5DB
:100E00008C7F8CBD8DB58E7F8DBD08958230B8F4FA
:100E1000E82FF0E0EE0FFF1FEB5BFE4F7183608366
:100E2000813039F080916900836080936900E89A8D
:100E30000895809169008C6080936900E99A089513
:100E400090917304E0917404F0917504292F20951A
:100E500080FF14C0F8948281822382838181892B50
:100E60008183A3E2B0E01197F1F78281982B9283FE
:100E7000789487ED90E00197F1F70895F8948281D6
:100E8000822382838181892B8183AFEFB0E0119728
:100E9000F1F78281982B928378948FE090E0EBCFEA
:100EA00080917304E0917404F0917504F894918139
:100EB000982B91832281382F309523232283A7E01A
:100EC000B0E01197F1F7918193239183A3E2B0E011
:100ED0001197F1F790817894EFECF0E03197F1F70A
:100EE000982381E009F480E00895FF920F931F9307
:100EF000CF93DF93F82E062FC8E0D0E011E081E019
:100F00009F2D912309F480E00E942007110F219763
:100F1000B1F7011113C0F894E0917404F0917504D5
:100F2000918180917304809598239183E09174045A
:100F3000F09175049281892382837894DF91CF9117
:100F40001F910F91FF90089580917304E0917404B4
:100F5000F0917504F8949181282F20959223918324
:100F600078943DE743E050E0315029F1DA011197E0
:100F7000F1F790819823C1F3F894928192239283A0
:100F80009181982B91837894ABE7B7E01197F1F7B3
:100F9000F894918192239183A3E1B1E01197F1F745
:100FA0009081982381E009F080E07894E3E6F6E010
:100FB0003197F1F7089580E00895833081F028F4A7
:100FC000813099F08230A9F008958730A9F08830F7
:100FD000C9F08430B1F4809180008F7D03C080918E
:100FE00080008F7780938000089584B58F7784BDCB
:100FF000089584B58F7DFBCF8091B0008F7780936B
:10100000B00008958091B0008F7DF9CFCF93DF932A
:10101000282F30E0F901E558FA4F8491F901E355A2
:10102000FA4FD491F901E756FA4FC491CC23A1F0BD
:1010300081110E94DD07EC2FF0E0EE0FFF1FE1575A
:10104000FA4FA591B491EC91ED2381E090E009F481
:1010500080E0DF91CF91089580E090E0FACF1F9378
:10106000CF93DF93282F30E0F901E558FA4F8491B0
:10107000F901E355FA4FD491F901E756FA4FC491BB
:10108000CC23A9F0162F81110E94DD07EC2FF0E090
:10109000EE0FFF1FEF58FA4FA591B4918FB7F89458
:1010A000EC91111108C0D095DE23DC938FBFDF9146
:1010B000CF911F910895DE2BF8CFCF93DF9390E06F
:1010C000FC01E355FA4F249187569A4FFC01849115
:1010D0008823C9F090E0880F991FFC01E959FA4F65
:1010E000A591B491FC01EF58FA4FC591D4916111CB
:1010F0000DC09FB7F8948C91209582238C938881A2
:10110000282328839FBFDF91CF910895623051F447
:101110009FB7F8943C91822F809583238C93E8812C
:101120002E2BEFCF8FB7F894EC912E2B2C938FBFF3
:10113000EACFCF93DF93C82F60E00E945D08D0E034
:10114000FE01E355FA4FE491A3E7B4E0EC93FE010E
:10115000E756FA4FE491F0E0EE0FFF1FE157FA4F28
:101160008591949112969C938E9311971B961C9245
:101170001B971D961C921D971C961C921C971A96E5
:101180001C921A9719961C92199718961C921897E8
:1011900017961C92179716961C92169715961C92E6
:1011A000159714961C92149713961C92DF91CF9169
:1011B0000895806480937C0080917A00806480939D
:1011C0007A0080917A0086FDFCCF80917800909122
:1011D000790008953FB7F8948091A6039091A703F2
:1011E000A091A803B091A90326B5A89B05C02F3FE5
:1011F00019F00196A11DB11D3FBFBA2FA92F982F3D
:101200008827BC01CD01620F711D811D911D42E037
:10121000660F771F881F991F4A95D1F708958F92FF
:101220009F92AF92BF92CF92DF92EF92FF926B01AB
:101230007C010E94EA084B015C01C114D104E10465
:10124000F104B9F00E94EA08681979098A099B0932
:10125000683E73408105910580F321E0C21AD108F0
:10126000E108F10888EE880E83E0981EA11CB11CED
:10127000E4CFFF90EF90DF90CF90BF90AF909F9022
:101280008F9008952FB7F8946091A2037091A303F3
:101290008091A4039091A5032FBF08950895AF9264
:1012A000BF92CF92DF92EF92FF920F931F93CF9353
:1012B000DF936C017B018B01040F151FEB015E01B5
:1012C000AE18BF08C017D10759F06991D601ED914A
:1012D000FC910190F081E02DC6010995892B79F7E9
:1012E000C501DF91CF911F910F91FF90EF90DF909B
:1012F000CF90BF90AF900895FC01538D448D252F62
:1013000030E0842F90E0821B930B541710F0CF969F
:10131000089501970895FC01918D828D981761F0D1
:10132000A28DAE0FBF2FB11D5D968C91928D9F5FE8
:101330009F73928F90E008958FEF9FEF08958F92A3
:101340009F92AF92BF92EF92FF920F931F93CF9312
:10135000DF937B018C01D0E0C0E00E9442096093E2
:10136000DE037093DF038093E0039093E10386ED47
:1013700093E00E948B0997FF27C00E94420980904A
:10138000DE039090DF03A090E003B090E1036819C2
:1013900079098A099B098090DA039090DB03A09079
:1013A000DC03B090DD03681579058A059B05F8F22A
:1013B000CE01DF91CF911F910F91FF90EF90BF90E1
:1013C000AF909F908F900895F80181938F0121969F
:1013D000EC16FD0611F6ECCFFC01918D828D98176D
:1013E00031F0828DE80FF11D858D90E008958FEF2B
:1013F0009FEF08950F931F930E9442096093DE03AD
:101400007093DF038093E0039093E10386ED93E014
:101410000E94EC0997FF1DC00E9442090091DE0363
:101420001091DF032091E0033091E103601B710B09
:10143000820B930B0091DA031091DB032091DC0304
:101440003091DD036017710782079307F8F28FEF81
:101450009FEF1F910F910895CF92DF92EF92FF922D
:10146000CF930E94FA09FC0197FD4EC08D32910581
:1014700021F0C0970A9708F040C0C12CD12C76010A
:10148000C0E0E130F105D1F0ED32F105D9F1CF0145
:10149000C0970A9798F4AAE0B0E0A70196010E94CD
:1014A0004A336F01FF0FEE08FF08C60ED71EE81E75
:1014B000F91E80E3C81AD108E108F10886ED93E02F
:1014C0000E948B090E94FA09FC01C0970A97C8F292
:1014D000E130F105B1F2CC2341F0F094E094D094E6
:1014E000C094C11CD11CE11CF11CC701B601CF91F5
:1014F000FF90EF90DF90CF90089586ED93E00E94EB
:101500008B09AFCFC1E0DACFC12CD12C7601EDCF62
:101510008F929F92AF92BF92CF92DF92EF92FF9203
:10152000CF93DF930E94FA09FC0197FD88C08D32AA
:10153000910509F04CC0812C912C80E8A82E8FE3F6
:10154000B82EC12CD12C7601C0E0D0E0E130F105FD
:1015500059F1ED32F10509F447C0EE32F10509F415
:1015600045C0CF01C0970A97F8F4AAE0B0E0A70100
:1015700096010E944A336F01FF0FEE08FF08C60E66
:10158000D71EE81EF91E80E3C81AD108E108F10849
:10159000CC2351F02DEC3CEC4CEC5DE3C501B401E7
:1015A0000E9476324B015C0186ED93E00E948B092C
:1015B0000E94FA09FC01C0970A9740F2EE32F10549
:1015C000B9F4CC2319F2CD2FD11118C025C0C09782
:1015D0000A9708F4B0CFEE32F10509F4ACCF86EDEE
:1015E00093E00E948B099ECFD1E0DECFC1E0DCCF3B
:1015F000E130F10509F4AACFDD2341F0F094E09445
:10160000D094C094C11CD11CE11CF11CC701B601CF
:101610000E941732CC2341F0C701B6010E94173255
:10162000A50194010E947632DF91CF91FF90EF9057
:10163000DF90CF90BF90AF909F908F90089560E023
:1016400070E0CB01F1CFFC01918D228D892F90E0CC
:10165000805C9F4F821B91098F739927089586EDB7
:1016600093E00E94230B21E0892B09F420E0822FD4
:10167000089580E090E0892B29F00E942F0B8111C2
:101680000C9400000895FC01A48DA80FB92FB11D82
:10169000A35ABF4F2C91848D90E001968F739927A8
:1016A000848FA689B7892C93A089B1898C91837086
:1016B00080648C93938D848D981306C00288F3897F
:1016C000E02D80818F7D80830895EF92FF920F93AC
:1016D0001F93CF93DF93EC0181E0888F9B8D8C8DDE
:1016E00098131AC0E889F989808185FF15C09FB7D2
:1016F000F894EE89FF896083E889F9898081837095
:10170000806480839FBF81E090E0DF91CF911F9143
:101710000F91FF90EF900895F62E0B8D10E00F5F64
:101720001F4F0F731127E02E8C8D8E110CC00FB63A
:1017300007FCFACFE889F989808185FFF5CFCE01D2
:101740000E94430BF1CFEB8DEC0FFD2FF11DE35AFF
:10175000FF4FF0829FB7F8940B8FEA89FB89808155
:101760008062CFCF682F86ED93E00C94650B1F93BA
:10177000CF93DF93C6E3D6E0FE011491112351F01D
:101780001A3019F48DE00E94B20B812F0E94B20B27
:101790002196F2CFDF91CF911F9108950F931F9360
:1017A000CF93DF938C01D0E0C0E0F801EC0FFD1F78
:1017B0006491662341F086ED93E00E94650B892BCE
:1017C00011F02196F2CFCE01DF91CF911F910F91B1
:1017D0000895CF93DF93EC01888D8823B9F0AA890F
:1017E000BB89E889F9898C9185FD03C0808186FDDC
:1017F0000DC00FB607FCF7CF8C9185FFF2CF80812B
:1018000085FFEDCFCE010E94430BE9CFDF91CF9151
:101810000895CF92DF92EF92FF920F931F93CF9391
:10182000DF93082F10E096E1899FE0011124CB5748
:10183000DB4F8E819F81A885B985892B8A2B8B2BC5
:10184000A9F10E944209CA88DB88EC88FD886C19DE
:101850007D098E099F09CE80DF80E884F984C61651
:10186000D706E806F90658F48E859F85A889B989B8
:101870000196A11DB11D8E879F87A88BB98B0E94F1
:10188000420926E1209FF001219FF00D1124EB5722
:10189000FB4F628B738B848B958BDF91CF911F9164
:1018A0000F91FF90EF90DF90CF9008958E859F85E8
:1018B000A889B9890196A11DB11D8E879F87A88B24
:1018C000B98BEBCF80E00C94090C81E00C94090CEF
:1018D000CF92DF92EF92FF920F931F93CF93DF93FC
:1018E00080911A0190E025E0959587952A95E1F77A
:1018F0008095909583709927C0EFD2E002C0D5956E
:10190000C7958A95E2F720913D0130913E01DE01B5
:101910000E94B33328E13CEF4FEF5FEF0E94863324
:1019200080914202909143020197280F391F309312
:1019300084012093830120E030E04AE754E4609181
:1019400025017091260180912701909128010E9424
:1019500076320E94B6348E01DD0F220B330B6B0101
:101960007C01C01AD10AE20AF30AA7019601A8EE87
:10197000B3E00E944A33685873418109910928E60F
:1019800030E040E050E00E94643320937F013093C8
:1019900080014093810150938201DF91CF911F918B
:1019A0000F91FF90EF90DF90CF900895CF92DF924C
:1019B000EF92FF926B017C01C0922501D09226012B
:1019C000E0922701F092280160913D0170913E0163
:1019D00090E080E00E941532A70196010E947632C5
:1019E0000E94B634709343026093420220E034E2D6
:1019F00044E759E4C701B6010E94763220E030E0A6
:101A000040ED52E40E943D340E94B6346093870258
:101A1000709388028093890290938A02FF90EF90DE
:101A2000DF90CF900C94680CEF92FF920F931F936E
:101A3000CF93DF93E0914402CE2FD0E07E01EE0CF5
:101A4000FF1CEE0CFF1CD701A75DBE4F4D935D93AD
:101A50006D937C931397B70160507F4FDB010D931B
:101A60001D932D933C9313979E01215C3C4F91E075
:101A7000D9019C93A82FB0E0A358BC4FEC93EF5F23
:101A8000E0934402F0E0EC5EFE4F8083DF91CF9163
:101A90001F910F91FF90EF900895F8948CB5837F7C
:101AA0008CBD8CB58F7D8CBD0E94FF0660E08AE006
:101AB0000C942F088EBD00000DB407FEFDCF8EB52F
:101AC0000895CF93C82F0E944D0D8C2F0E945A0D60
:101AD00080E00E945A0DC82F61E08AE00E942F0822
:101AE00078948C2FCF910895CF93DF93D82FC62F62
:101AF0000E944D0D8D2F80680E945A0D8C2F0E94E0
:101B00005A0D61E08AE00E942F087894DF91CF910E
:101B100008958F929F92AF92BF92DF92EF92FF92C1
:101B20000F931F93CF93DF9300D01F92CDB7DEB7F3
:101B3000082FE62E122F69ED423019F04330F1F5EF
:101B400064EE87E00E94740D60E088E00E94740DEE
:101B500060E089E00E94740D0E9442094B015C0123
:101B600081E00E94610D837E682F606181E00E94A8
:101B7000740D0E944209681979098A099B096F301E
:101B800071058105910500F587E20E94610D87FFCF
:101B9000FBCF61E083E20E94740D83E20E94610D3D
:101BA00081FFFBCF84E20E94610D833CF8F48DE35A
:101BB0000E94610D682F64608DE3D9CF6CE687E0E9
:101BC0000E94740D60E8C1CFF12C81E00E94610D8C
:101BD000682F637E81E00E94740D88E20E94610D8F
:101BE000807539F080E00E94610DF7CFFF24F394F7
:101BF000ECCF602F80E30E94740D60E085E20E94CC
:101C0000740D1B821A8220E1029FC0011124082753
:101C1000D12C8E2D8F73E82E8B818430E8F588E2ED
:101C20000E94610D87FDF8CF8B81813079F030F013
:101C30008230F1F0833001F16AEA04C08B818F5F5A
:101C40008B836AE280E00E94740DE6CF09832981CC
:101C5000898194E0299F900111248227807C8983C7
:101C60006A8189816F73682B8B818F5F8B83EACF49
:101C70006A81607C6E29F8CF81E08D0DED2DF0E05A
:101C8000E255FC4F6081D82E8832E1F68B818F5F60
:101C90008B8388E2D82ED6CF612F6F71606881E187
:101CA0000E94740D81E00E94610D837E682F6C603C
:101CB00081E00E94740D88E20E94610D83FD07C0DF
:101CC00061E070E080E090E00E940F09F4CF81E0D5
:101CD0000E94610D682F637E81E00E94740D8F2D3C
:101CE0000F900F900F90DF91CF911F910F91FF9068
:101CF000EF90DF90BF90AF909F908F900895FC0180
:101D000001900020E9F73197AF01481B590BBC0146
:101D100086ED93E00C944F098DE591E00C947F0ED5
:101D2000CF93DF930E94CE0BEC010E948C0E8C0FA0
:101D30009D1FDF91CF910895009711F00C947F0EB5
:101D400090E080E008958F929F92AF92BF920F93A0
:101D50001F93CF93DF93CDB7DEB7A1970FB6F8945B
:101D6000DEBF0FBECDBF19A2423008F44AE08E019B
:101D70000F5D1F4F842E912CB12CA12CA501940135
:101D80000E946433E62FB901CA01EA30D4F4E05D61
:101D9000D801EE938D01232B242B252B79F7CD0130
:101DA0000E949C0EA1960FB6F894DEBF0FBECDBF69
:101DB000DF91CF911F910F91BF90AF909F908F9027
:101DC0000895E95CE5CFCF92DF92EF92FF92CF9337
:101DD000DF9397FF19C06B017C018DE20E94B20B6B
:101DE000EC0166277727CB016C197D098E099F09C5
:101DF0004AE00E94A30E8C0F9D1FDF91CF91FF90B0
:101E0000EF90DF90CF9008954AE0DF91CF91FF905F
:101E1000EF90DF90CF900C94A30EBC01990F880B2C
:101E2000990B0C94E30ECF93DF930E940D0FEC01FE
:101E30000E948C0E8C0F9D1FDF91CF9108954F92C1
:101E40005F926F927F928F929F92AF92BF92CF924A
:101E5000DF92EF92FF920F931F93CF936B017C0160
:101E6000742EAC019B010E94CB35882399F080E64B
:101E700091E0CF911F910F91FF90EF90DF90CF9065
:101E8000BF90AF909F908F907F906F905F904F909A
:101E90000C947F0E46015701E894B7F82FEF3FEFFF
:101EA0004FE75FE7C501B4010E94CB3581110DC03A
:101EB0002FEF3FEF4FE75FE7C501B4010E941032FB
:101EC00018161CF484E691E0D4CF2FEF3FEF4FE7D4
:101ED0005FE4C701B6010E94783518161CF488E645
:101EE00091E0C7CF2FEF3FEF4FE75FECC701B6019F
:101EF0000E94103287FDF3CF20E030E0A901C70136
:101F0000B6010E94103210E000E087FF08C08DE2A9
:101F10000E94B20B8C01F7FAF094F7F8F094C0E04D
:101F200060E070E080E09FE37C1641F020E030E06C
:101F300040E251E40E943D34CF5FF6CFA701960105
:101F40000E94CC332B013C010E94B6344B015C0152
:101F50004AE00E94A30E7C01E00EF11ECC23B1F1F9
:101F6000C501B4010E9415329B01AC01C301B2014D
:101F70000E94CB334B015C018EE20E94B20BE80E53
:101F8000F91EC15018F120E030E040E251E4C501F3
:101F9000B4010E9476322B013C010E94B6344B0101
:101FA000B12CA12C4AE0C501B4010E94A30EE80E99
:101FB000F91EC501B4010E9415329B01AC01C30199
:101FC000B2010E94CB334B015C01DBCFC701CF9143
:101FD0001F910F91FF90EF90DF90CF90BF90AF9047
:101FE0009F908F907F906F905F904F900895CF93C8
:101FF000DF930E941F0FEC010E948C0E8C0F9D1F1F
:10200000DF91CF9108950C941F0FCF92DF92EF9242
:10201000FF920F931F93CF93DF9389E196E00E9485
:10202000CE0B6091AD0370E090E080E04AE00E944A
:10203000A30E81E791E00E947F0E6091490170E05C
:1020400090E080E04AE00E94A30E8091AD038823D7
:1020500009F44FC085E096E00E94900E10E000E089
:102060008091AD038017110609F00CF442C068019D
:1020700083E0CC0CDD1C8A95E1F7F12CE12CC091BA
:10208000AB03D091AC03CC0DDD1DCE0DDF1D8881DF
:10209000803120F483E096E00E94CE0B688170E0EE
:1020A00090E080E040E10E94A30E81E096E00E9473
:1020B000CE0B8FEFE81AF80AE8E0EE16F104F9F615
:1020C0008091AB039091AC03C80ED91EF6018681B6
:1020D000833021F486EE95E00E94CE0B0E948C0E98
:1020E00065E070E080E090E00E940F090F5F1F4FF5
:1020F000B7CF0E948C0E8BEC95E00E94CE0B8091A6
:10210000AA03811118C08CE691E00E949C0E81EC1C
:1021100095E00E94900E0E948C0E65E070E080E0D9
:1021200090E0DF91CF911F910F91FF90EF90DF90A2
:10213000CF900C940F098FE591E0E7CFDF92EF92FB
:10214000FF920F931F93CF93DF932091800421116F
:1021500006C0E92ED82E0E94A40781110FC010924C
:102160007E041092800410927F0480E0DF91CF9172
:102170001F910F91FF90EF90DF90089560E080EF46
:102180000E947507D1E000E0F12CC1E00E945007E9
:10219000182F0E9450071130E1F48130C9F5C13485
:1021A000F0F2F0927E04F11003C081E0809380048D
:1021B00080917604882399F2A6E7B4E0ED2DFE2DF8
:1021C000CF0108962D912193E817F907D9F781E0FF
:1021D000CDCFE02FF0E0181311C080917E04C81716
:1021E000A8F4DF01AD58BB4F13968C918D2381F479
:1021F00010E0C93010F4C0937F04FC2EED58FB4F63
:1022000083819D2F9095892383830AC08C13F0CFFF
:10221000E02FF0E0ED58FB4F83818D2B838311E09D
:10222000812F0E942007CF5FDD0F11F40F5FD1E0F7
:10223000083008F4ABCFB3CFCF92DF92FF920F9369
:102240001F93CF93DF93CDB7DEB728970FB6F894DF
:10225000DEBF0FBECDBFC090AB03D090AC03C114A6
:10226000D10439F00091490210914A02011511057B
:1022700091F41092AA031092AD0328960FB6F89429
:10228000DEBF0FBECDBFDF91CF911F910F91FF90A9
:10229000DF90CF900895F82E80914A010E9499080E
:1022A000F092AA03FF2009F48CC020E030E040E85F
:1022B0005FE3609125017091260180912701909143
:1022C00028010E94103287FF03C08FE180931A011A
:1022D000F0901A0120914901F80110E080E395E7A0
:1022E000211721F0819391931F5FFACF10927E0402
:1022F0001092800410927F0410927D0410927C044E
:1023000010927B0410927A0410927904109278044F
:1023100010927704109276041092AD03CE010196CC
:102320000E949E10882349F089818832B9F78091F4
:10233000AD038F5F8093AD03F1CF8091AD0318178C
:1023400010F41093AD03F6018081883289F010E01B
:102350008091AD03181760F4F8E01F9FC0011124AD
:102360008C0D9D1D0E949E10882311F01F5FF0CFE1
:102370000E94A40760E08CEC0E94750760E08EE488
:102380000E94750760E080E00E94750760E080E0D1
:102390000E94750760E08F2D0E9475070E94A407B8
:1023A00060E08CEC0E94750761E088E40E9475078C
:1023B00064E170E080E090E00E940F090E94680CE8
:1023C0005CCF1091200117FDF9CF61E0812F0E94B1
:1023D0005D0860E0812F0E942F0860E0812F0E943D
:1023E0005D08ECCF87E591E00E94900E81E591E0D9
:1023F0000E94CE0B8091D104813009F406C1823055
:1024000009F406C1833009F406C190E080E00E941F
:102410000D0F84E491E00E94CE0B6091D20470E035
:1024200090E080E04AE00E94A30E8CE391E00E94DD
:10243000CE0B8091D3048F7390E00E940D0F89E33F
:1024400091E00E94CE0B8091D5048251990B0E949D
:102450000D0F84E391E00E94900E87E291E00E94CC
:10246000900E8FE191E00E94CE0B6091D6047091A6
:10247000D7048091D8049091D90442E050E00E94A2
:10248000F70F83E191E00E94CE0B6091DE04709122
:10249000DF048091E0049091E10442E050E00E946A
:1024A000F70F8AE091E00E94CE0B6091E6047091F4
:1024B000E7048091E8049091E90442E050E00E9432
:1024C000F70F80E091E00E94CE0B6091EA047091DA
:1024D000EB048091EC049091ED0442E050E00E9406
:1024E000F70F87EF90E00E94CE0B6091EE047091A1
:1024F000EF048091F0049091F10442E050E00E94DA
:10250000F70F8DEE90E00E94CE0B6091F204709177
:10251000F3048091F4049091F50442E050E00E94AD
:10252000F70F84EE90E00E94CE0B6091F60470915C
:10253000F7048091F8049091F90442E050E00E9481
:10254000F70F8AED90E00E94CE0B6091FA04709133
:10255000FB048091FC049091FD0442E050E00E9455
:10256000F70F81ED90E00E94CE0B6091FE04709118
:10257000FF04809100059091010542E050E00E9427
:10258000F70F87EC90E00E94CE0B609102057091EE
:102590000305809104059091050542E050E00E94FA
:1025A000F70F8CEB90E00E94CE0B609106057091C6
:1025B0000705809108059091090542E050E00E94CE
:1025C000F70F82EB90E00E94CE0B80910A0590E01D
:1025D0000E94130F82EA90E00E94CE0B80910B05BF
:1025E00090910C050E94130F8091D404811116C0A4
:1025F00086E890E00E94900E83E990E00E94CE0B66
:1026000080910D0590E00C94130F81EB91E0FFCECB
:1026100084E693E0FCCE83E993E0F9CE8DE890E088
:10262000E9CF4F925F926F927F928F929F92AF927B
:10263000BF92CF92DF92EF92FF921F93CF93DF93DF
:10264000C82F60913D0170913E0190E080E00E94B2
:1026500015326B017C0180914301909144010196F8
:1026600018E6189FB001199F700D1124072E000C59
:10267000880B990B0E9417322BED3FE049EC50E498
:102680000E947632A70196010E94763220E034E261
:1026900044E759E40E943D344B015C01D0E0CE0197
:1026A0000196189FB001199F700D1124072E000C80
:1026B000880B990B0E941732A70196010E9476326F
:1026C00020E034E244E759E40E943D346B017C0190
:1026D000CC0FDD1FCC0FDD1FFE01E050FF4F20E0CF
:1026E00030E044EB53E460817181828193810E94E8
:1026F0003D349B01AC01C701B6010E94CC332BEDE8
:102700003FE049EC50E40E9476322B013C010E94EC
:102710007D356B017C01C501B4010E947D359B01B3
:10272000AC01C701B6010E943D346B017C01FE0182
:10273000E15AFD4FC082D182E282F382C301B2012D
:102740000E9438342B013C01C501B4010E94383489
:102750009B01AC01CD58DD4FC701B6010E94763216
:102760009B01AC01C301B2010E94CB336883798322
:102770008A839B83DF91CF911F91FF90EF90DF9031
:10278000CF90BF90AF909F908F907F906F905F9011
:102790004F900895CF9390933E0180933D01BC01EB
:1027A00090E080E00E9415322091250130912601B1
:1027B00040912701509128010E9476320E94B63440
:1027C00070934302609342020E94680CC0E08091C3
:1027D000430190914401C81719062CF48C2F0E94D4
:1027E0001113CF5FF4CFCF9108954F925F926F9204
:1027F0007F92AF92BF92CF92DF92EF92FF920F93B0
:102800001F93CF93DF93E82FCB01BA0168017901C1
:10281000F0E0E358FC4F108124E0129FE001112406
:10282000FE01E75DFE4F5F0120911C0130911D010B
:1028300040911E0150911F010E9476322B013C01F4
:10284000609183047091840490E080E00E941532CE
:102850009B01AC01C301B2010E943D34F5016083CC
:10286000718382839383C050DF4FC882D982EA820A
:10287000FB82812FDF91CF911F910F91FF90EF90FD
:10288000DF90CF90BF90AF907F906F905F904F9010
:102890000C941113FC01808191810C943433CF92FC
:1028A000DF92EF92FF920F931F93CF93DF9300D0AD
:1028B000CDB7DEB76C017C0103E010E01A83098319
:1028C000CE0101960E944A14F70181937F010F5FA8
:1028D0001F4F0730110591F7C6010F900F90DF9140
:1028E000CF911F910F91FF90EF90DF90CF900895BF
:1028F000AF92BF92CF92DF92EF92FF920F931F930E
:10290000CF93DF9300D0CDB7DEB77C016B0110E031
:1029100000E00C151D05A4F55801AE0CBF1CBA82D1
:10292000A982CE0101960E944A14803118F480E3F6
:102930000E94B20B0F5F1F4FBA82A982CE0101968F
:102940000E944A14682F70E090E080E040E10E940D
:10295000A30E84E791E00E947F0EC801877099273B
:10296000892B21F484E791E00E947F0EC8018F70CB
:102970009927892B71F686EA9DE00E94CE0BC9CF7C
:102980000F900F90DF91CF911F910F91FF90EF90DB
:10299000DF90CF90BF90AF9008950F931F93CF9388
:1029A000DF9300D000D0CDB7DEB78C011A82198238
:1029B000CE0101960E944A148F3411F581E090E017
:1029C0009A838983CE0101960E944A148534C1F40A
:1029D00082E090E09A838983CE0101960E944A1496
:1029E0008D3471F481E00115110559F0CE01019685
:1029F0000E944F1481E02B813C812017310709F0A0
:102A000080E00F900F900F900F90DF91CF911F916A
:102A10000F9108951F93CF93DF93EC01162F0E941F
:102A20004A14811729F0612F888199810E943C33D3
:102A3000CE01DF91CF911F910895CF92DF92EF9257
:102A4000FF920F931F93CF93DF9300D0CDB7DEB7E4
:102A50006C017C0103E010E01A830983F7016191A6
:102A60007F01CE0101960E940A150F5F1F4F0730AC
:102A7000110591F7C6010F900F90DF91CF911F9133
:102A80000F91FF90EF90DF90CF9008951F920F92DB
:102A90000FB60F9211242F933F938F939F93AF9371
:102AA000BF938091A2039091A303A091A403B0913E
:102AB000A5033091A10323E0230F2D3758F501968C
:102AC000A11DB11D2093A1038093A2039093A303A2
:102AD000A093A403B093A5038091A6039091A703AC
:102AE000A091A803B091A9030196A11DB11D8093E7
:102AF000A6039093A703A093A803B093A903BF9143
:102B0000AF919F918F913F912F910F900FBE0F909A
:102B10001F90189526E8230F0296A11DB11DD2CF54
:102B20001F920F920FB60F9211242F933F934F9342
:102B30005F936F937F938F939F93AF93BF93EF9325
:102B4000FF93E0914701F09148010995FF91EF91C2
:102B5000BF91AF919F918F917F916F915F914F91B5
:102B60003F912F910F900FBE0F901F9018951F92BD
:102B70000F920FB60F9211242F933F934F935F93B1
:102B80006F937F938F939F93AF93BF93EF93FF9335
:102B9000E0914501F09146010995FF91EF91BF91B8
:102BA000AF919F918F917F916F915F914F913F91E5
:102BB0002F910F900FBE0F901F9018951F920F929C
:102BC0000FB60F9211242F933F934F935F936F9300
:102BD0007F938F939F93AF93BF93EF93FF9386ED74
:102BE00093E00E94430BFF91EF91BF91AF919F91B2
:102BF0008F917F916F915F914F913F912F910F90A6
:102C00000FBE0F901F9018951F920F920FB60F9244
:102C100011242F938F939F93EF93FF93E091E603FB
:102C2000F091E7038081E091EC03F091ED0382FDE8
:102C30001BC090818091EF038F5F8F732091F00311
:102C4000821741F0E091EF03F0E0EA52FC4F958FDC
:102C50008093EF03FF91EF919F918F912F910F90B0
:102C60000FBE0F901F9018958081F4CF1F920F9286
:102C70000FB60F9211242F923F924F925F926F9254
:102C80007F928F929F92AF92BF92CF92DF92EF92FC
:102C9000FF920F931F932F933F934F935F936F93E5
:102CA0007F938F939F93AF93BF93EF93FF93CF93B4
:102CB000DF9300D01F92CDB7DEB7409078005090E0
:102CC000790080913C02E2E0E80F209143013091CD
:102CD0004401E217130621F01CF0E1E0E80FE21BCB
:102CE000F0E0EC5EFE4F8081805C80937C00809100
:102CF0003E0290913F02A0914002B09141020196A4
:102D0000A11DB11D80933E0290933F02A09340020B
:102D1000B093410280913C028111CEC280913A026F
:102D200090913B0290933902809338028091830402
:102D300090918404969587959201281B390B3093C6
:102D40003B0220933A028091360290913702AC0107
:102D50005695479556954795841B950BA90137FFC6
:102D600004C044275527421B530B840F951F909393
:102D700037028093360241E06091810470918204B1
:102D80006817790708F040E04093460312161306CF
:102D90000CF0B0C081E090E0909335028093340253
:102DA000209134023091350280911E0290911F02D1
:102DB0002817390709F4A3C080917E018F5F8093A3
:102DC0007E0180917E01833030F010927E0130933D
:102DD000210220932002809187018823B1F087E0AF
:102DE00080937A0080917A00806880937A00809145
:102DF0007A0080937A0080917A0080937A008091A3
:102E00007A0080937A00109287016090200270907F
:102E1000210220914301309144018091460388238F
:102E200009F47CC380911E0290911F0241E0641658
:102E3000710409F0CDC1019709F4D0C180918501D9
:102E4000909186010196909386018093850140912F
:102E50001B01442309F476C00A9708F473C010924A
:102E60001B0110928601109285010CEEE02E01E00C
:102E7000F02EA4ECB1E00CE911E048E851E090E05C
:102E800080E082179307F4F5F70110821182128215
:102E900013821482158216821782F8E0EF0EF11C5D
:102EA0001C9211961C92119712961C9212971396CF
:102EB0001C92139714961C92149715961C921597B2
:102EC00016961C92169717961C9217971896F8014B
:102ED0001082118212821382148215821682178246
:102EE000085F1F4FFA011192119211921192AF01D6
:102EF0000196C7CF109235021092340251CF109232
:102F00007E015FCF109226021092270210922802B3
:102F10001092290210922A0210922B0210922C0277
:102F200010922D021092220210922302109224027B
:102F30001092250210923002109231021092320249
:102F40001092330280918501909186014091830116
:102F5000509184018417950739F440911B01411168
:102F600003C041E040934503409142025091430227
:102F70008417950708F432C180911B0181112EC17D
:102F800010928601109285016CEE71E07B836A835A
:102F9000A4ECB1E01CE9212E11E0312E68E871E0CB
:102FA00050E040E0421753070CF0A0C0EA81FB81DB
:102FB00080809180A280B380C480D580E680F78035
:102FC0003896FB83EA83CA01E3E0880F991FEA95EC
:102FD000E1F78C01095E1C4FF80180829182A28288
:102FE000B382C482D582E682F7828C9011969C903F
:102FF00011971296AC9012971396BC901397149653
:10300000CC9014971596DC9015971696EC90169721
:103010001796FC90179718968C0101511D4FF801D7
:1030200080829182A282B382C482D582E682F782B4
:103030000A811B8108501109F80110821182128245
:10304000138214821582168217828D01085011098D
:10305000F801108211821282138214821582168264
:103060001782F10180809180A280B380C480D580D6
:10307000E680F780F8E02F0E311C8C0109531D4FBC
:10308000F80180829182A282B382C482D582E682D4
:10309000F782810108501109F80110821182128211
:1030A00013821482158216821782FB0181909190FF
:1030B000A190B190BF0175016401FF0CCC08DC2C1C
:1030C000760181569D4FFC0180829182A282B3825B
:1030D000C482C582C682C782CB010497FC011082DC
:1030E0001182128213824F5F5F4F5CCF8091220268
:1030F00090912302A0912402B0912502AC01BD0160
:10310000770F440B542FBA0180938B0290938C025B
:10311000A0938D02B0938E0240938F024093900251
:10312000409391024093920270912602609127028F
:10313000509128024091290230912A0220912B02BD
:1031400090912C0280912D027093970260939802C7
:103150005093990240939A0230939B0220939C02D1
:1031600090939D0280939E02109226021092270255
:10317000109228021092290210922A0210922B0219
:1031800010922C0210922D02109222021092230211
:103190001092240210922502809130029091310207
:1031A000A0913202B09133028093930290939402E3
:1031B000A0939502B09396021092300210923102C1
:1031C000109232021092330281E08093440306C0D1
:1031D000892B21F010922F0210922E028091300242
:1031E00090913102A0913202B09133020196A11D5B
:1031F000B11D8093300290933102A0933202B093BC
:10320000330280912E0290912F02019690932F020B
:1032100080932E02E0913A02F0913B029F01DF0180
:103220000E94AB336B017C01FF0CCC08DC2C7601D7
:103230009B01AC016C2D7C2D8C2D9C2DA090260229
:10324000B0902702C0902802D0902902E0902A0274
:10325000F0902B0200912C0210912D020E94C2339B
:10326000209326023093270240932802509329028C
:1032700060932A0270932B0280932C0290932D026C
:10328000CF01FF0FAA0BBB0B4091220250912302EA
:103290006091240270912502840F951FA61FB71F0D
:1032A0008093220290932302A0932402B0932502DC
:1032B00070921F0260921E02E0913C02E98320900E
:1032C000430130904401EE2309F4F8C08E2E912C76
:1032D000281439040CF4F2C0F1E08F1A9108F401BB
:1032E000E15CFC4F46E0441651040CF492C281E0CC
:1032F0008083F401EE0FFF1FEC5EFD4F809183048D
:10330000909184049695879560807180681A790AF7
:10331000F40133E0EE0FFF1F3A95E1F7BF0164516E
:103320007E4F7B836A83A0913802B091390293016A
:103330000E94AB336B017C01FF0CCC08DC2C7601C6
:103340009B01AC016C2D7C2D8C2D9C2DAA81BB8109
:10335000AC901196BC9011971296CC901297139640
:10336000DC9013971496EC9014971596FC90159793
:1033700016960C91169717961C9117970E94C233B8
:103380002C9311963C93119712964C931297139687
:103390005C93139714966C93149715967C931597DA
:1033A00016968C93169717969C93BF016C537E4F7D
:1033B0007B836A83A0913A02B0913B0293010E9401
:1033C000AB336B017C01FF0CCC08DC2C76019B013C
:1033D000AC016C2D7C2D8C2D9C2DAA81BB81AC90D9
:1033E0001196BC9011971296CC9012971396DC9080
:1033F00013971496EC9014971596FC9015971696C3
:103400000C91169717961C9117970E94C2332C9314
:1034100011963C93119712964C93129713965C93C6
:10342000139714966C93149715967C93159716968C
:103430008C93169717969C93E456FE4F9301D301F5
:103440000E94AB336B017C01FF0CCC08DC2C7601B5
:103450009B01AC016C2D7C2D8C2D9C2DA080B1800E
:10346000C280D380E480F580068117810E94C23338
:103470002083318342835383648375838683978358
:10348000F401EE0FFF1FEE0FFF1FE857FE4FC301C1
:10349000770CAA0BBB0B4081518162817381840F31
:1034A000951FA61FB71F80839183A283B383F40166
:1034B000EE0FFF1FEC5EFD4F5182408289818F5FCE
:1034C00080933C028215130419F014F010923C0210
:1034D0000F900F900F90DF91CF91FF91EF91BF91DF
:1034E000AF919F918F917F916F915F914F913F919C
:1034F0002F911F910F91FF90EF90DF90CF90BF9091
:10350000AF909F908F907F906F905F904F903F9083
:103510002F900F900FBE0F901F90189540913E0274
:1035200050913F02609140027091410280917F0171
:1035300090918001A0918101B0918201841795073B
:10354000A607B70748F480914802811105C081E0C1
:10355000809345038093480240913E0250913F0280
:10356000609140027091410280918702909188029F
:10357000A0918902B0918A0284179507A607B70720
:1035800008F02CCE10923E0210923F0210924002A0
:103590001092410281E080931B01109286011092EB
:1035A00085016CEE71E07B836A8314EC212E11E0BF
:1035B000312EECE9F1E068E871E050E040E04217BC
:1035C00053070CF0D7C0CA01A3E0880F991FAA9532
:1035D000E1F78C01095E1C4FD8011C9211961C92D8
:1035E000119712961C92129713961C921397149689
:1035F0001C92149715961C92159716961C92169766
:1036000017961C928C0101511D4FD8011C921196E6
:103610001C92119712961C92129713961C92139754
:1036200014961C92149715961C92159716961C9238
:10363000169717961C92AA81BB811C9211961C9218
:10364000119712961C92129713961C921397149628
:103650001C92149715961C92159716961C92169705
:1036600017961C9217971896BB83AA83D1011C92B8
:1036700011961C92119712961C92129713961C92F7
:10368000139714961C92149715961C9215971696DC
:103690001C92169717961C92B8E02B0E311C808056
:1036A0009180A280B380C480D580E680F780389670
:1036B0008C0109531D4FD8018C9211969C92119741
:1036C0001296AC9212971396BC9213971496CC92C2
:1036D00014971596DC9215971696EC9216971796F6
:1036E000FC927F01B8E0EB1AF108D7011C92119609
:1036F0001C92119712961C92129713961C92139774
:1037000014961C92149715961C92159716961C9257
:10371000169717961C92DB018D909D90AD90BD90F1
:10372000BD0175016401FF0CCC08DC2C76018156CB
:103730009D4FDC018C9211969C9211971296AC923F
:1037400012971396BC9213971496CC9214971596D1
:10375000CC9215971696CC9216971796CC92CB01D1
:103760000497DC011D921D921D921C9213974F5FCE
:103770005F4F25CF70912602609127025091280259
:103780004091290230912A0220912B0290912C0223
:1037900080912D0270939702609398025093990242
:1037A00040939A0230939B0220939C0290939D0237
:1037B00080939E02109226021092270210922802F5
:1037C0001092290210922A0210922B0210922C02BF
:1037D00010922D028091220290912302A091240246
:1037E000B0912502AC01BD01770F440B542FBA01F3
:1037F00080938B0290938C02A0938D02B0938E02E3
:1038000040938F0240939002409391024093920222
:10381000BBCC10824CCEEF92FF920F931F93CF93AD
:10382000DF9300D0CDB7DEB71092D9031092D80342
:1038300088EE93E0A0E0B0E08093DA039093DB039E
:10384000A093DC03B093DD038FE491E09093D70362
:103850008093D60385EC90E09093E3038093E2039A
:1038600084EC90E09093E5038093E40380EC90E097
:103870009093E7038093E60381EC90E09093E90353
:103880008093E80382EC90E09093EB038093EA034B
:1038900086EC90E09093ED038093EC031092EF039D
:1038A0001092F0031092F1031092F203109285042B
:1038B0001092860433E03093890421E020938A0437
:1038C0008EE690E0A0E0B0E080938B0490938C04AF
:1038D000A0938D04B0938E0410928F0410929004E4
:1038E00010929104109292041092930410929404F6
:1038F000109295041092960410929B0410929C04CE
:1039000030939F042093A0048093A1049093A20479
:10391000A093A304B093A4041092A5041092A6044B
:103920001092A7041092A8041092A9041092AA045D
:103930001092AB041092AC0480E094E09093840465
:103940008093830480E290E09093820480938104CA
:1039500080914A010E9499088EEF90E09093CC04E8
:103960008093CB0485E190E09093C8048093C704D2
:1039700084E290E09093C6048093C5048BE091E0CC
:103980009093CE048093CD048FEF93E09093D00476
:103990008093CF041092CA041092C9040BE011E086
:1039A0001A830983CE0101960E944A14780195E199
:1039B000E90EF11C8F3F81F11093CA040093C904F2
:1039C0008FEFE81683E0F80674F5FA82E982CE01FB
:1039D00001960E944A148F3FD9F00BE011E08091CC
:1039E000CF049091D00408171907ECF41A830983C7
:1039F0006FEFCE0101960E940A151092CA04109230
:103A0000C9048091C7049091C804080F191FE7CF1B
:103A100095E1E90EF11CD4CF87018FEFE81683E022
:103A2000F80609F0BDCF81E08093D10492ED909328
:103A3000D2049FE09093D3048093D40499E19093AF
:103A4000D50449E25CE766E873E44093D6045093FA
:103A5000D7046093D8047093D90440E050E062E04A
:103A600073E44093DA045093DB046093DC047093B6
:103A7000DD0440E050E060E773E44093DE045093DF
:103A8000DF046093E0047093E10440E050E068E4F8
:103A900072E44093E2045093E3046093E40470936F
:103AA000E5040DEC1CEC25EB32E40093E6041093E6
:103AB000E7042093E8043093E90440E050E060E438
:103AC00070E44093EA045093EB046093EC04709329
:103AD000ED040093EE041093EF042093F004309370
:103AE000F1044093F2045093F3046093F404709350
:103AF000F5040093F6041093F7042093F804309330
:103B0000F9044093FA045093FB046093FC0470930F
:103B1000FD0449E25CE565E871E44093FE045093DE
:103B2000FF04609300057093010540E050E060ECF5
:103B300070E440930205509303056093040570936D
:103B400005054AE959E96DE171E440930605509392
:103B50000705609308057093090580930A0524E61C
:103B600030E030930C0520930B0580930D051092E7
:103B700026050F900F90DF91CF911F910F91FF902D
:103B8000EF900895CF93DF93CDB7DEB7C058D1093A
:103B90000FB6F894DEBF0FBECDBF789484B58260B7
:103BA00084BD84B5816084BD85B5826085BD85B5E1
:103BB000816085BD80916E00816080936E0010925F
:103BC00081008091810082608093810080918100DA
:103BD000816080938100809180008160809380006B
:103BE0008091B10084608093B1008091B0008160C9
:103BF0008093B00080917A00846080937A008091F5
:103C00007A00826080937A0080917A00816080934C
:103C10007A0080917A00806880937A001092C100C7
:103C200088E199E20FB6F894A895809360000FBEE2
:103C30009093600061E086E00E945D0861E086E0AC
:103C40000E942F0862E088E00E945D0862E089E03F
:103C50000E945D08E091E603F091E70382E0808333
:103C6000E091E203F091E3031082E091E403F0912C
:103C7000E50380E180831092EE03E091EA03F09186
:103C8000EB0386E08083E091E803F091E903808113
:103C900080618083E091E803F091E903808188608E
:103CA0008083E091E803F091E9038081806880835C
:103CB000E091E803F091E90380818F7D808388E0C3
:103CC0000E940608892B29F48091D3048F5F80938A
:103CD000D3048AE592E00E94CE0B86E791E00E9431
:103CE0009C0E84E492E00E94900E85E190E00E9498
:103CF000CD14882331F1CE0101960E944F14E98042
:103D0000FA80F7FC1EC0570123E0A20EB11CB1EDF2
:103D1000CB2EB4E0DB2E07E010E01B870A87CE0134
:103D20000A960E944A14D6018D936D010F5F1F4FB2
:103D30000A151B0590F382E791E0B4E0EB16F1045D
:103D400011F481E691E00E94900E0E94F2118091A0
:103D5000D4048823E1F18BE392E00E94CE0B83E34D
:103D600092E00E94CE0B8091D104813021F48CE24C
:103D700092E00E94CE0B8091D104823021F485E242
:103D800092E00E94CE0B8091D104833021F48EE129
:103D900092E00E94CE0B85E192E00E94CE0B6091F2
:103DA000D20470E090E080E04AE00E94A30E8DE033
:103DB00092E00E94CE0B6091D30470E090E080E02E
:103DC0004AE00E94A30E8BE092E00E94900E89E0F0
:103DD0000E940608892B99F481E08093460289EFBE
:103DE00091E00E94CE0B6091DA047091DB04809127
:103DF000DC049091DD0442E050E00E94F70F81E086
:103E00000E94D908181619060CF028C281E0809388
:103E10009A03809145028F5F8093450282E00E9461
:103E2000D908181619060CF01CC281E0809399037A
:103E3000809145028F5F8093450283E00E94D908FC
:103E4000181619060CF010C281E080939803809137
:103E500045028F5F8093450284E00E94D9081816BE
:103E600019060CF004C281E080939703809145020B
:103E70008F5F809345028091D404882309F4DDC0CC
:103E80008CEE91E00E94900E61E08AE00E942F0883
:103E900061E08AE00E945D081FB7F89480913D02BE
:103EA000811127C0E3EAF5E08491E7EBF5E0949116
:103EB000E82FF0E0EE0FFF1FE959FA4FA591B491FA
:103EC000EC91E92321F461E08AE00E942F0861E08F
:103ED0008AE00E945D088CB580618CBD8CB58064E1
:103EE0008CBD61E08DE00E945D0861E08BE00E9486
:103EF0005D0880913D028F5F80933D021FBF8CB5AE
:103F00008F7D8CBD8CB5837F8CBD0E94FF066AEAD5
:103F10008FE20E94740D8FE20E94610D8A3AB9F718
:103F200065E58FE20E94740D8FE20E94610D853578
:103F3000B9F764E081E00E94740D60E082E00E94C5
:103F4000740D62E083E00E94740D6AE884E00E94D0
:103F5000740D62E085E00E94740D61EE86E00E94BF
:103F6000740D60E28BE00E94740D6AE489E10E94A6
:103F7000740D62E48AE10E94740D69E981E10E9496
:103F8000740D6CE28EE10E94740D60E885E20E947F
:103F9000740D67E086E20E94740D68EC89E20E946D
:103FA000740D65E08DE20E94740D68E88EE20E9457
:103FB000740D6DE28FE20E94740D60ED87E30E9444
:103FC000740D62E488E30E94740D6FE88CE30E9434
:103FD000740D62E18DE30E94740D60E28FE60E9431
:103FE000740D62E081E70E94740D0AE010E0109306
:103FF000B5030093B4032091D5044091D10460919E
:10400000D30481E00E94890D64E670E080E090E0D6
:104010000E940F090150110950F71092B503109238
:10402000B4036091D304F4E16F9FB0011124072E13
:10403000000C880B990B0E940F0960E086E00E943B
:104040002F0880914502811115C18BED91E00E94EE
:10405000900E68EC70E080E090E00E940F09809183
:10406000D6049091D704A091D804B091D9041092AD
:10407000140180933F0190934001A0934101B093BC
:104080004201F0904602FF2081F08091DA04909185
:10409000DB04A091DC04B091DD0480933F01909398
:1040A0004001A0934101B09342010091EA041091B4
:1040B000EB042091EC043091ED044091E604509122
:1040C000E7046091E8047091E90481E00E94140D16
:1040D0000091F2041091F3042091F4043091F5045E
:1040E0004091EE045091EF046091F0047091F1045E
:1040F00082E00E94140D0091FA041091FB042091BB
:10410000FC043091FD044091F6045091F704609155
:10411000F8047091F90483E00E94140D00910205E7
:104120001091030520910405309105054091FE048E
:104130005091FF04609100057091010584E00E9498
:10414000140D83E393E3A3E5B0E480931C01909303
:104150001D01A0931E01B0931F01FF2021F08CE3ED
:1041600090E00E94CA136091060570910705809146
:104170000805909109050E94D60C8091DE0490916B
:10418000DF04A091E004B091E104809321019093B9
:104190002201A0932301B093240180910A0580930A
:1041A000850481E08093860413E010938904809352
:1041B0008A0480910B0590910C05092E000CAA0B26
:1041C000BB0B80938B0490938C04A0938D04B093CD
:1041D0008E0485E080934A0183E18093200161E0B1
:1041E0000E945D0861E083E10E942F088FE58093C3
:1041F0001A018EE095E09093AC038093AB0310928C
:104200000E058BE993E090934A0280934902109344
:104210004901E090C904F090CA04E114F10409F4E2
:10422000E3C001EB14E09701205B34406901960183
:10423000200F311F8091C7049091C8048E0D9F1DDF
:10424000281739070CF068C03A832983CE010196FC
:104250000E944A14D8018D938D01E9CF10929A03E0
:10426000DDCD10929903E9CD10929803F5CD10920F
:10427000970301CE80919A03882381F086EC91E028
:104280000E94CE0B6091E6047091E7048091E804EF
:104290009091E90442E050E00E94F70F8091990369
:1042A000882381F081EB91E00E94CE0B6091EE04B7
:1042B0007091EF048091F0049091F10442E050E09D
:1042C0000E94F70F80919803882381F08CE991E098
:1042D0000E94CE0B6091F6047091F7048091F8046F
:1042E0009091F90442E050E00E94F70F809197030B
:1042F000882309F4AECE87E891E00E94CE0B60914E
:10430000FE047091FF04809100059091010542E048
:1043100050E00E94F70F9DCE8090B1049090B204BF
:10432000A090B304B090B404C090B504D090B6048B
:10433000E090B704F090B8040091B9041091BA0469
:104340002091BB043091BC044091BD045091BE0447
:104350006091BF047091C0048091C1049091C20427
:10436000A091C304B091C40480925103909252036F
:10437000A0925303B0925403C0925503D0925603B7
:10438000E0925703F09258030093590310935A0395
:1043900020935B0330935C0340935D0350935E0373
:1043A00060935F037093600380938F0490939004F5
:1043B000A0939104B093920480910D050E941C116A
:1043C00080914402882301F1282F30E0309344018A
:1043D000209343018F5F90E08530B0F4FC01E15CF5
:1043E000FC4F10820196F8CF80E090E0DC0140E0C5
:1043F00050E0BA0100E010E09801C12CD12C760108
:10440000812C912C5401B0CF60918304709184046D
:1044100090E080E00E9415324B015C0123E333E31E
:1044200043E550E460913F0170914001809141016A
:10443000909142010E947632A50194010E943D3480
:1044400060933F017093400180934101909342013A
:1044500010E000E080914301909144010817190792
:1044600054F57801EE0CFF1CEE0CFF1CF701E75D24
:10447000FE4F6F0123E333E343E550E46081718134
:10448000828193810E947632A50194010E943D347D
:10449000D6016D937D938D939C931397802F0E94EB
:1044A0001113F701E55BFD4F108211821282138216
:1044B0000F5F1F4FCFCF82E69CE0909388048093DC
:1044C000870485E69CE090939E0480939D0481E0A0
:1044D00080931B0110923E0210923F021092400204
:1044E0001092410287E080937A0080917A00806880
:1044F00080937A0080917A00806280937A00809124
:104500007A00886080937A0080917A00806480933A
:104510007A007894C0902501D0902601E090270180
:10452000F090280160913D0170913E0190E080E0A3
:104530000E941532A70196010E9476320E94B6347D
:1045400070934302609342021092440320E034E2ED
:1045500044E759E4C701B6010E94763220E030E01A
:1045600040ED52E40E943D340E94B63460938702CD
:10457000709388028093890290938A0280918504C7
:10458000882359F062E0809189040E945D0862E608
:104590007CE080918A040E94060780919B04882316
:1045A00059F062E080919F040E945D0865E67CE01E
:1045B0008091A0040E9406071092AE031092AF03F0
:1045C0001092B0031092B1030E9405101E01BAE0D0
:1045D0002B0E311C86ED93E00E94230B892B41F1B9
:1045E000809147028111BFC065E070E0CE01019665
:1045F0000E949F090597E1F489818B32C9F48A8171
:104600008B32B1F48C818D3099F48D818A3081F4B4
:104610008B818B3209F09FC081E08093470212E0CA
:1046200084E594E00E94900E123011F40E94B70BC2
:10463000809145038823E1F0109245038091AA03FD
:104640008823B1F01091200117FD08C061E0812F8F
:104650000E945D0861E0812F0E942F080E94A4073C
:1046600060E08CEC0E94750761E084E40E947507AD
:1046700080914403882311F40C94E3311092440395
:10468000F894209143013091440190E080E082173A
:1046900093070CF06EC4FC01E15CFC4F40814111BA
:1046A00058C0FC0143E0EE0FFF1F4A95E1F7DF0120
:1046B000A95EBC4F1C9211961C92119712961C92E7
:1046C000129713961C92139714961C921497159692
:1046D0001C92159716961C92169717961C92DF013E
:1046E000A151BD4F1C9211961C92119712961C92CB
:1046F000129713961C92139714961C921497159662
:104700001C92159716961C92169717961C92DF010D
:10471000A953BD4F1C9211961C92119712961C9290
:10472000129713961C92139714961C921497159631
:104730001C92159716961C92169717961C92E15686
:10474000FD4F10821182128213821482158216820A
:10475000178201969CCF833709F06ACF81E080935E
:10476000470211E05DCF86ED93E00E948B09E1ECFA
:10477000E80FEC3308F06DC00E2E000CFF0BED536C
:10478000FC4D0C94A533B427292429242924292459
:1047900029242924292429242924292429242924B1
:1047A00029242924292429242924292429242924A1
:1047B0002924292429242924292429242924292491
:1047C00029242924292429242924FF2335245A246F
:1047D00066242924812491242924D5252924A4244C
:1047E0007F258425D5252924E7252924F9252C266C
:1047F000E026292444274D27582729246A270E9488
:10480000880A6093DE047093DF048093E004909341
:10481000E10488E494E00E94CE0B6091DE04709184
:10482000DF048091E0049091E10442E050E00E94B6
:10483000F70F8091DE049091DF04A091E004B09125
:10484000E1048093210190932201A0932301B0936E
:10485000240186ED93E00E94230B892B09F4E8CE16
:1048600086ED93E00E948B09F4CF0E942C0A6430FD
:10487000D9F0683099F0693059F01092D10490E085
:1048800080E00E940D0F83E494E00E94900EE1CF3F
:1048900083E08093D10483E993E0F3CF82E08093B7
:1048A000D10484E693E0EDCF81E08093D10481EBE5
:1048B00091E0E7CF0E942C0A6130710521F481E07C
:1048C00080932605C6CF10922605C3CF0E94880A82
:1048D0006B017C010E94D60CC0920605D0920705A0
:1048E000E0920805F092090582E394E00E94CE0B65
:1048F00042E050E0C701B6010E9403108FE294E04D
:10490000C4CF0E94880A0E94AF346B01CB010E9481
:10491000CA1388E294E00E94CE0BC6010E94130FD6
:1049200098CF0E942C0A6093D20481E294E00E9406
:10493000CE0B6091D20470E090E080E04AE00E94EB
:10494000A30E0E948C0E85CF0E942C0A6C877D8757
:104950008E879F870C851D850E94880A6B017C01CC
:104960000E94880A4B015C010230110509F497C0CE
:104970002CF50115110509F440C00130110509F4A9
:1049800076C08AE194E00E94CE0B8C859D850E94C2
:104990000D0F88E194E00E94CE0B42E050E0C70189
:1049A000B6010E94031086E194E00E94CE0B42E023
:1049B00050E0C501B4010E94F70F4BCF0330110541
:1049C00009F485C004301105E1F69C018B01B701A3
:1049D000A60184E00E94F513C092FE04D092FF0469
:1049E000E0920005F0920105809202059092030585
:1049F000A0920405B0920505C4CF20911C0130910E
:104A00001D0140911E0150911F01C701B6010E9476
:104A100076322B013C01609183047091840490E014
:104A200080E00E9415329B01AC01C301B2010E94DB
:104A30003D3460933F017093400180934101909316
:104A4000420180914602882349F0C092DA04D09254
:104A5000DB04E092DC04F092DD0493CFC092D60434
:104A6000D092D704E092D804F092D9048ACF9C0166
:104A70008B01B701A60181E00E94F513C092E60404
:104A8000D092E704E092E804F092E9048092EA040C
:104A90009092EB04A092EC04B092ED0472CF9C01D2
:104AA0008B01B701A60182E00E94F513C092EE04CB
:104AB000D092EF04E092F004F092F1048092F204BC
:104AC0009092F304A092F404B092F5045ACF9C01A2
:104AD0008B01B701A60183E00E94F513C092F60492
:104AE000D092F704E092F804F092F9048092FA046C
:104AF0009092FB04A092FC04B092FD0442CF0E946D
:104B0000F2110E940510A5CE0E942C0A8B010E9472
:104B10002C0A0E9417326B017C0186ED93E00E9403
:104B2000230B892B29F086ED93E00E948B09F5CFAA
:104B300001151105A9F001301105D1F08DE094E0C7
:104B40000E94CE0B85E094E0012B09F49ECE42E05A
:104B500050E0C701B6010E94031089E094E095CEB1
:104B60001092850481E08093860410920A05E6CFB6
:104B7000C701B6010E94AF344B01072E000CAA08F2
:104B8000BB0880928B0490928C04A0928D04B0920A
:104B90008E0421E0209385042093860420930A0547
:104BA00070930C0560930B05C9CF0E942C0A6623F5
:104BB00061F0603408F06FE36093D3048FEF93E00B
:104BC0000E94CE0B6091D304B6CE61E0F5CF0E9477
:104BD0002C0A6F716093D5048AEF93E00E94CE0B8C
:104BE0008091D5048251990B0E940D0F85EF93E0BF
:104BF0004CCE86ED93E00E94230B892B29F086EDA5
:104C000093E00E948B09F5CF86E893E00E94900E16
:104C100085E190E00E94CD14882389F0CE010196B1
:104C20000E944F1489819A8197FD09C091958195C1
:104C300091099A838983CE0101960E941D1588E50A
:104C400093E00E94900E68EC70E080E090E00E949B
:104C50000F090C940000FDCD8EE493E00E94900EAD
:104C600085E190E00E94CD14811128C01A8219823A
:104C70006FE4CE0101960E940A1581E090E09A83CC
:104C8000898365E4CE0101960E940A1582E090E0D6
:104C90009A8389836DE4CE0101960E940A1503E090
:104CA00010E01A8309836FEFCE0101960E940A1566
:104CB0000F5F1F4F0115E4E01E0799F76AE5C62E46
:104CC000D12CDA82C98285E190E09C838B83CE016E
:104CD00001960E941D1571EDE72E74E0F72E07E096
:104CE00010E0D7016D917D011B870A87C1010E94E9
:104CF0000A150F5F1F4F0D35110599F790E080E001
:104D00000E94CD1481111AC086E293E00E94CE0B5E
:104D10004AE060E074E080E090E00E94A30E80E052
:104D200093E00E94900E60E074E090E080E00E94CA
:104D300078148EEF92E00E94CE0B0CC0CE0101964B
:104D40000E944F148B819C81019649F48DEA92E078
:104D50000E94900E0E948C0E8DE293E096CD80EA28
:104D600092E00E94CE0B6B817C8190E080E04AE073
:104D70000E94A30E09811A8117FF03C011950195A6
:104D800011090450110982E992E00E94CE0BC8017A
:104D90000E940D0F8BE892E00E94CE0B89819A81D0
:104DA00097FF04C080E892E00E94CE0B0E948C0E18
:104DB000B80187E090E00E9478148EE792E0BBCFC4
:104DC0000E942C0A6B01CB01892B71F40E942C0AE2
:104DD00021E0672B682B692B09F420E020930D0557
:104DE000822F0E941C1135CD6430710508F031CD41
:104DF00061E070E0C1010E949F0910E000E061E005
:104E000070E0C1010E949F09892B49F1083038F5F3
:104E10008A85803221F08D3011F08A3051F4E1E042
:104E2000F0E0EC0FFD1FE00FF11D10830F5F10E0AD
:104E3000E6CF1295107F90ED980F9A3030F09FEBEF
:104E4000980F963020F499EC980F190FD8CF9FE95E
:104E5000980F963010F499EAF7CF90E0F6CFDE0184
:104E6000119653E0CC0CDD1C5A95E1F790E080E000
:104E70002D91FC01EC0DFD1DEF52FB4F25AB019672
:104E800088309105A9F7E5CC8AEC93E00E94CE0B1F
:104E900086E791E00E949C0EDCCC0E942C0A609375
:104EA000D40484EC93E06111F0CC8DEB93E0EDCC75
:104EB0008FEA93E00E94900E86ED93E00E94230B10
:104EC000892B29F086ED93E00E948B09F5CF109293
:104ED0004702AECB85E993E00E94900E0091CD048D
:104EE0001091CE048091CF049091D0040817190737
:104EF0004CF11092510310925203109253031092EE
:104F000054031092550310925603109257031092B7
:104F100058031092590310925A0310925B03109297
:104F20005C0310925D0310925E0310925F03109277
:104F3000600310928F0410929004109291041092CA
:104F4000920487CC1A8309836FEFCE0101960E94E9
:104F50000A151092CA041092C9048091C704909156
:104F6000C804080F191FBECF0E94B70B83E993E056
:104F70008CCC05E814E0F12CE12C26E1D22EF801CE
:104F80008181882369F180818823B1F062E0848186
:104F90000E945D0862E67CE080918A04E114F104DD
:104FA00021F065E67CE08091A0040E94060718C00D
:104FB000EE24E394F12CE3CF8581823070F4E82F66
:104FC000F0E0813009F4D3C4E898EE0FFF1FEB5BEB
:104FD000FE4F2EE439E031832083D80111961C92D4
:104FE000DE9CF001DF9CF00D1124EB57FB4F868512
:104FF0009785A089B189892B8A2B8B2BC9F046858F
:10500000578560897189D8011A968D909D90AD90D1
:10501000BC901D97480D591D6A1D7B1D1A964D9316
:105020005D936D937C931D9716861786108A118A5F
:105030000A5E1F4FEA94EF2809F0BACF78942091C6
:105040009702309198024091990250919A02609192
:105050009B0270919C0280919D0290919E024090D3
:105060009302509094026090950270909602109175
:105070008B0200918C02C0908D02C88AD0908E0263
:10508000DA8AE0908F02EC8AF0909002FE8AC0905B
:105090009102C88ED0909202DA8EE0908B02EC8E54
:1050A000F0908C02FE8EC0908D02C8A2D0908E022D
:1050B000DCA2E0908F02E8A6F0909002FAA6C090E1
:1050C0009102CEA6D0909202DAAAC0909302D0901C
:1050D0009402E0909502F0909602CC86DD86EE86F2
:1050E000FF868090930290909402A0909502B090D9
:1050F00096020E94EB346B017C01C301B2010E9455
:1051000017329B01AC01C701B6010E943D346B010F
:105110007C01212F302F48895A896C897E89888D9E
:105120009A8D0E94E5342B013C012C8D3E8D48A1C7
:105130005CA168A57AA58EA59AA90E94E5349B0179
:10514000AC01C301B2010E9476322B013C016C8597
:105150007D858E859F850E9417329B01AC01C3011E
:10516000B2010E943D342B013C01C501B4010E94F3
:1051700017329B01AC01C301B2010E943D349B0177
:10518000AC01C701B6010E94CB330E948B35C090A1
:105190003F01D0904001E0904101F0904201C8A24F
:1051A000D9A2EAA2FBA2A70196010E9476326CA3C3
:1051B0007DA38EA39FA36093650370936603809382
:1051C000670390936803E0904301F0904401F9A6CF
:1051D000E8A68090930290909402A0909502B090DF
:1051E0009602609187027091880280918902909165
:1051F0008A020E9415326B017C01A8A5B9A51196FF
:10520000A50194010E94BA330E9417329B01AC01A0
:10521000C701B6010E943D346AA77BA78CA79DA752
:10522000F09046032F96FFAE2F97C0902101D090AB
:105230002201E0902301F09024016396CCAEDDAE14
:10524000EEAEFFAE6397C0902501D0902601E090AE
:105250002701F0902801CAAADBAAECAAFDAA21E541
:1052600033E03D8B2C8B4BE452E05F8B4E8B67E43D
:1052700073E07B8B6A8B83E893E09D878C87A3E741
:10528000B2E0B98FA88FEFE5F2E0FB8FEA8F29E259
:1052900031E03D8F2C8F49E653E05F8F4E8F198AA6
:1052A000188AC8A4D9A4E888F988EC14FD040CF085
:1052B0008CC3B70113E0660F771F1A95E1F7FB0166
:1052C000E95EFC4FF0806496FFAE6497C1806596FE
:1052D000CFAE6597D2806696DFAE6697E38067961D
:1052E000EFAE6797F4806896FFAE6897C5806996C1
:1052F000CFAE6997D6806A96DFAE6A97E7806B96E5
:10530000EFAE6B97A88DB98DCD90DD90ED90FD90AF
:10531000B98FA88FCAAEDBAEECAEFDAEFB01E1519A
:10532000FD4FC0806C96CFAE6C97D1806D96DFAE8E
:105330006D97E2806E96EFAE6E97F3806F96FFAE3C
:105340006F97C480A096CFAEA097D580A196DFAE10
:10535000A197E680A296EFAEA297F780A396FFAE44
:10536000A397AA8DBB8DCD90DD90ED90FD90BB8F66
:10537000AA8F2296CCAEDDAEEEAEFFAE2297C090E5
:105380009302D0909402E0909502F09096022696B7
:10539000CCAEDDAEEEAEFFAE2697D0908B02A496DB
:1053A000DFAEA497E0908C02A596EFAEA597F090A3
:1053B0008D02A696FFAEA697C0908E02A796CFAE9E
:1053C000A797D0908F02A896DFAEA897E0909002A2
:1053D000A996EFAEA997F0909102AA96FFAEAA9770
:1053E000C0909202AB96CFAEAB979B0121563D4F3A
:1053F0007901D901BC91AC96BFAFAC97F901F181AD
:10540000AD96FFAFAD97D9011296BC91AE96BFAFE6
:10541000AE97F901F381AF96FFAFAF97D90114961C
:10542000BC91E096BFAFE097F901F581E196FFAF3F
:10543000E197D9011696BC91E296BFAFE297F901C8
:10544000F781E396FFAFE3972091930230919402A6
:1054500040919502509196022A962CAF3DAF4EAFE7
:105460005FAF2A978091930290919402A091950248
:10547000B09196022E968CAF9DAFAEAFBFAF2E9778
:10548000AC8DBD8D2D913D914D915D91BD8FAC8FBA
:105490002EA73FA748AB59ABDB01A953BD4F2C91B9
:1054A00011963C91119712964C91129713965C911C
:1054B000139714966C91149715967C9115971696E0
:1054C0008C91169717969C918090930290909402DD
:1054D000A0909502B0909602F70110810181C280E0
:1054E000E496CFAEE497D380E596DFAEE597C4802F
:1054F000E696CFAEE697D580E796DFAEE797C68013
:10550000E896CFAEE897D780E996DFAEE997C080FE
:10551000EA96CFAEEA97D180EB96DFAEEB97C280EA
:10552000EC96CFAEEC97D380ED96DFAEED97C480CE
:10553000EE96CFAEEE97D580EF96DFAEEF97C680B2
:10554000C158DF4FC882CF57D040D780C058DF4FF7
:10555000D882C058D04040909302509094026090FE
:10556000950270909602C0909302D0909402E090C1
:105570009502F0909602CEAADFAAE8AEF9AE0E949C
:10558000EB346B017C01C501B4010E9417329B0111
:10559000AC01C701B6010E943D346B017C01212F93
:1055A000302FE4964FADE497E5965FADE597E6962C
:1055B0006FADE697E7967FADE797E8968FADE897F2
:1055C000E9969FADE9970E94E5344B015C01EA96AC
:1055D0002FADEA97EB963FADEB97EC964FADEC977E
:1055E000ED965FADED97EE966FADEE97EF967FADD2
:1055F000EF97C158DF4F8881CF57D040C058DF4F59
:105600009881C058D0400E94E5349B01AC01C5018F
:10561000B4010E9476324B015C01C301B2010E94C9
:1056200017329B01AC01C501B4010E943D344B010E
:105630005C016EA97FA988AD99AD0E9417329B01CC
:10564000AC01C501B4010E943D349B01AC01C7010E
:10565000B6010E94CB330E948B359B01AC016EA535
:105660007FA588A999A90E9476326B017C01AE8D35
:10567000BF8DCD92DD92ED92FD92BF8FAE8FAE8940
:10568000BF892D913D914D915C912EAB3FAB48AFC1
:1056900059AF2F96BFAD2F97BB2309F472C1649603
:1056A0002FAD649765963FAD659766964FAD66974B
:1056B00067965FAD679768966FAD689769967FAD9F
:1056C00069976A968FAD6A976B969FAD6B970E94AC
:1056D000E5342AAD3BAD4CAD5DAD0E9476324B0159
:1056E0005C016C962FAD6C976D963FAD6D976E9685
:1056F0004FAD6E976F965FAD6F97A0966FADA09709
:10570000A1967FADA197A2968FADA297A3969FADCC
:10571000A3970E94E53422962CAD3DAD4EAD5FAD12
:1057200022970E9476329B01AC01C501B4010E9410
:10573000CC334B015C0126966CAD7DAD8EAD9FAD3B
:1057400026970E9417329B01AC01C501B4010E944B
:105750003D344B015C01A4962FADA497A5963FADB7
:10576000A597A6964FADA697A7965FADA797A896C3
:105770006FADA897A9967FADA997AA968FADAA9766
:10578000AB969FADAB970E94E5342B013C01AC96E4
:105790002FADAC97AD963FADAD97AE964FADAE97F2
:1057A000AF965FADAF97E0966FADE097E1967FADB6
:1057B000E197E2968FADE297E3969FADE3970E9463
:1057C000E5349B01AC01C301B2010E9476322B018A
:1057D0003C012A966CAD7DAD8EAD9FAD2A970E949F
:1057E00017329B01AC01C301B2010E943D342B0171
:1057F0003C012E966CAD7DAD8EAD9FAD2E970E9477
:1058000017329B01AC01C301B2010E943D349B01E0
:10581000AC01C501B4010E94CB3328A139A14AA132
:105820005BA10E9476322EA53FA548A959A90E94E6
:1058300076324B015C01A70196016CA17DA18EA17E
:105840009FA10E9476329B01AC01C501B4010E9468
:105850003D346B017C0126E636E646E85FE30E94B4
:10586000783518160CF485C026E636E646E85FEB78
:10587000C701B6010E94103287FD7BC0A7019601C7
:10588000C701B6010E94CB35811173C0EC85FD853F
:10589000C082D182E282F38220E030E040E05FE328
:1058A000C501B4010E94CC330E94AF34EA89FB8960
:1058B000718360832AA93BA94CA95DA9C501B401E4
:1058C0000E9476322AA53BA54CA55DA50E943D34D9
:1058D0002EA93FA948AD59AD0E94CC336B017C0184
:1058E00020E030E041E655E40E943D340E94AF34B0
:1058F000AC89BD890D911D912D913D91BD8BAC8BD6
:10590000FD013497072E000C880B990B060F171F0B
:10591000281F391F00831183228333830E9417328B
:1059200020E030E041E655E40E9476329B01AC0174
:10593000C701B6010E94CB33EE89FF896193719351
:1059400081939193FF8BEE8B288939892F5F3F4F8D
:10595000398B288B4A895B894E5F5F4F5B8B4A8B03
:105960006C857D856C5F7F4F7D876C879ACCE998CD
:105970002CCBAC85BD851D921D921D921C92139758
:105980008BCF63962CAD3DAD4EAD5FAD63970E945E
:1059900076326B017C01AC85BD851D921D921D92F6
:1059A0001C92139720E030E040E05FE30E94CC338C
:1059B0000E94AF34EA89FB89718360832AA93BA9DD
:1059C0004CA95DA9C701B6017BCF8091AA038823AA
:1059D00009F4DFC0D12CB6E0CB2E8091AD03D816F0
:1059E000B8F090914901282F30E0220F331FE09149
:1059F0004902F0914A02E20FF31F891708F0C2C072
:105A000040E3C42E45E7D42EC192D1928F5FF5CFEB
:105A10002DEC3CEC4CE45EE3609125017091260195
:105A200080912701909128010E941032ED2CF12CD9
:105A300087FF0EC0EE0CFF1CE0914902F0914A0274
:105A4000EE0DFF1D80EC96E791838083D394C5CF44
:105A50000E94A407882371F30091AB031091AC035B
:105A6000C701E3E0880F991FEA95E1F7080F191FB6
:105A7000D8018C918823F1F260E085E50E947507DA
:105A80005801B8E0AB0EB11C60E0F80181918F01C4
:105A90000E9475070A151B05B9F760E08EEB0E949E
:105AA00075078E010F5F1F4F580178E0872E912CEC
:105AB000712C662463940E94500781117628660C2D
:105AC000F1E08F1A9108B9F7D5017D925D012A1690
:105AD0003B0659F799E0E0E0915099F0D8018D919B
